{"abi":[{"type":"constructor","inputs":[{"name":"_token","type":"address","internalType":"address"},{"name":"_nft","type":"address","internalType":"address"},{"name":"_merkleRoot","type":"bytes32","internalType":"bytes32"},{"name":"_nftPrice","type":"uint256","internalType":"uint256"}],"stateMutability":"nonpayable"},{"type":"function","name":"claimNFT","inputs":[{"name":"proof","type":"bytes32[]","internalType":"bytes32[]"}],"outputs":[],"stateMutability":"nonpayable"},{"type":"function","name":"claimed","inputs":[{"name":"","type":"address","internalType":"address"}],"outputs":[{"name":"","type":"bool","internalType":"bool"}],"stateMutability":"view"},{"type":"function","name":"merkleRoot","inputs":[],"outputs":[{"name":"","type":"bytes32","internalType":"bytes32"}],"stateMutability":"view"},{"type":"function","name":"multicall","inputs":[{"name":"data","type":"bytes[]","internalType":"bytes[]"}],"outputs":[{"name":"results","type":"bytes[]","internalType":"bytes[]"}],"stateMutability":"nonpayable"},{"type":"function","name":"nft","inputs":[],"outputs":[{"name":"","type":"address","internalType":"contract MerkleNFT"}],"stateMutability":"view"},{"type":"function","name":"nftPrice","inputs":[],"outputs":[{"name":"","type":"uint256","internalType":"uint256"}],"stateMutability":"view"},{"type":"function","name":"owner","inputs":[],"outputs":[{"name":"","type":"address","internalType":"address"}],"stateMutability":"view"},{"type":"function","name":"permitPrePay","inputs":[{"name":"tokenOwner","type":"address","internalType":"address"},{"name":"spender","type":"address","internalType":"address"},{"name":"value","type":"uint256","internalType":"uint256"},{"name":"deadline","type":"uint256","internalType":"uint256"},{"name":"v","type":"uint8","internalType":"uint8"},{"name":"r","type":"bytes32","internalType":"bytes32"},{"name":"s","type":"bytes32","internalType":"bytes32"}],"outputs":[],"stateMutability":"nonpayable"},{"type":"function","name":"setMerkleRoot","inputs":[{"name":"_merkleRoot","type":"bytes32","internalType":"bytes32"}],"outputs":[],"stateMutability":"nonpayable"},{"type":"function","name":"setNFTPrice","inputs":[{"name":"_nftPrice","type":"uint256","internalType":"uint256"}],"outputs":[],"stateMutability":"nonpayable"},{"type":"function","name":"token","inputs":[],"outputs":[{"name":"","type":"address","internalType":"contract DiscountToken"}],"stateMutability":"view"},{"type":"function","name":"verifyWhitelist","inputs":[{"name":"proof","type":"bytes32[]","internalType":"bytes32[]"},{"name":"account","type":"address","internalType":"address"}],"outputs":[{"name":"","type":"bool","internalType":"bool"}],"stateMutability":"view"},{"type":"event","name":"NFTClaimed","inputs":[{"name":"user","type":"address","indexed":true,"internalType":"address"},{"name":"tokenId","type":"uint256","indexed":false,"internalType":"uint256"}],"anonymous":false},{"type":"error","name":"AddressEmptyCode","inputs":[{"name":"target","type":"address","internalType":"address"}]},{"type":"error","name":"FailedCall","inputs":[]}],"bytecode":{"object":"0x608060405234801562000010575f80fd5b5060405162001c0f38038062001c0f8339818101604052810190620000369190620001e2565b835f806101000a81548173ffffffffffffffffffffffffffffffffffffffff021916908373ffffffffffffffffffffffffffffffffffffffff1602179055508260015f6101000a81548173ffffffffffffffffffffffffffffffffffffffff021916908373ffffffffffffffffffffffffffffffffffffffff16021790555081600281905550806004819055503360055f6101000a81548173ffffffffffffffffffffffffffffffffffffffff021916908373ffffffffffffffffffffffffffffffffffffffff1602179055505050505062000251565b5f80fd5b5f73ffffffffffffffffffffffffffffffffffffffff82169050919050565b5f6200013c8262000111565b9050919050565b6200014e8162000130565b811462000159575f80fd5b50565b5f815190506200016c8162000143565b92915050565b5f819050919050565b620001868162000172565b811462000191575f80fd5b50565b5f81519050620001a4816200017b565b92915050565b5f819050919050565b620001be81620001aa565b8114620001c9575f80fd5b50565b5f81519050620001dc81620001b3565b92915050565b5f805f8060808587031215620001fd57620001fc6200010d565b5b5f6200020c878288016200015c565b94505060206200021f878288016200015c565b9350506040620002328782880162000194565b92505060606200024587828801620001cc565b91505092959194509250565b6119b0806200025f5f395ff3fe608060405234801561000f575f80fd5b50600436106100b2575f3560e01c806381530b681161006f57806381530b68146101785780638da5cb5b14610194578063ac9650d8146101b2578063c884ef83146101e2578063edf8cb6014610212578063fc0c546a1461022e576100b2565b80630d39fc81146100b657806318ff357e146100d457806325f69942146101045780632eb4a7ab1461012057806347ccca021461013e5780637cb647591461015c575b5f80fd5b6100be61024c565b6040516100cb9190610c55565b60405180910390f35b6100ee60048036038101906100e99190610e5c565b610252565b6040516100fb9190610ed0565b60405180910390f35b61011e60048036038101906101199190610f49565b610293565b005b61012861032d565b6040516101359190610ff5565b60405180910390f35b610146610333565b6040516101539190611069565b60405180910390f35b61017660048036038101906101719190611082565b610358565b005b610192600480360381019061018d91906110ad565b6103f1565b005b61019c61048a565b6040516101a991906110e7565b60405180910390f35b6101cc60048036038101906101c79190611159565b6104af565b6040516101d991906112d9565b60405180910390f35b6101fc60048036038101906101f791906112f9565b610693565b6040516102099190610ed0565b60405180910390f35b61022c60048036038101906102279190611379565b6106b0565b005b610236610a17565b60405161024391906113e4565b60405180910390f35b60045481565b5f808260405160200161026591906110e7565b60405160208183030381529060405280519060200120905061028a8460025483610a3a565b91505092915050565b5f8054906101000a900473ffffffffffffffffffffffffffffffffffffffff1673ffffffffffffffffffffffffffffffffffffffff1663d505accf888888888888886040518863ffffffff1660e01b81526004016102f7979695949392919061140c565b5f604051808303815f87803b15801561030e575f80fd5b505af1158015610320573d5f803e3d5ffd5b5050505050505050505050565b60025481565b60015f9054906101000a900473ffffffffffffffffffffffffffffffffffffffff1681565b60055f9054906101000a900473ffffffffffffffffffffffffffffffffffffffff1673ffffffffffffffffffffffffffffffffffffffff163373ffffffffffffffffffffffffffffffffffffffff16146103e7576040517f08c379a00000000000000000000000000000000000000000000000000000000081526004016103de906114d3565b60405180910390fd5b8060028190555050565b60055f9054906101000a900473ffffffffffffffffffffffffffffffffffffffff1673ffffffffffffffffffffffffffffffffffffffff163373ffffffffffffffffffffffffffffffffffffffff1614610480576040517f08c379a0000000000000000000000000000000000000000000000000000000008152600401610477906114d3565b60405180910390fd5b8060048190555050565b60055f9054906101000a900473ffffffffffffffffffffffffffffffffffffffff1681565b60605f6104ba610a50565b73ffffffffffffffffffffffffffffffffffffffff163373ffffffffffffffffffffffffffffffffffffffff161461055a575f366104f6610a57565b5f369050610504919061151e565b90809261051393929190611559565b8080601f0160208091040260200160405190810160405280939291908181526020018383808284375f81840152601f19601f820116905080830192505050505050506105a8565b5f67ffffffffffffffff81111561057457610573610c93565b5b6040519080825280601f01601f1916602001820160405280156105a65781602001600182028036833780820191505090505b505b90508383905067ffffffffffffffff8111156105c7576105c6610c93565b5b6040519080825280602002602001820160405280156105fa57816020015b60608152602001906001900390816105e55790505b5091505f5b8484905081101561068b5761065a3086868481811061062157610620611593565b5b905060200281019061063391906115cc565b856040516020016106469392919061169a565b604051602081830303815290604052610a5b565b83828151811061066d5761066c611593565b5b60200260200101819052508080610683906116bf565b9150506105ff565b505092915050565b6003602052805f5260405f205f915054906101000a900460ff1681565b60035f3373ffffffffffffffffffffffffffffffffffffffff1673ffffffffffffffffffffffffffffffffffffffff1681526020019081526020015f205f9054906101000a900460ff161561073a576040517f08c379a000000000000000000000000000000000000000000000000000000000815260040161073190611750565b60405180910390fd5b6107848282808060200260200160405190810160405280939291908181526020018383602002808284375f81840152601f19601f8201169050808301925050505050505033610252565b6107c3576040517f08c379a00000000000000000000000000000000000000000000000000000000081526004016107ba906117b8565b60405180910390fd5b5f60026004546107d39190611803565b90505f8054906101000a900473ffffffffffffffffffffffffffffffffffffffff1673ffffffffffffffffffffffffffffffffffffffff166323b872dd3360055f9054906101000a900473ffffffffffffffffffffffffffffffffffffffff16846040518463ffffffff1660e01b815260040161085293929190611833565b6020604051808303815f875af115801561086e573d5f803e3d5ffd5b505050506040513d601f19601f820116820180604052508101906108929190611892565b6108d1576040517f08c379a00000000000000000000000000000000000000000000000000000000081526004016108c890611907565b60405180910390fd5b5f60015f9054906101000a900473ffffffffffffffffffffffffffffffffffffffff1673ffffffffffffffffffffffffffffffffffffffff16636a627842336040518263ffffffff1660e01b815260040161092c91906110e7565b6020604051808303815f875af1158015610948573d5f803e3d5ffd5b505050506040513d601f19601f8201168201806040525081019061096c9190611939565b9050600160035f3373ffffffffffffffffffffffffffffffffffffffff1673ffffffffffffffffffffffffffffffffffffffff1681526020019081526020015f205f6101000a81548160ff0219169083151502179055503373ffffffffffffffffffffffffffffffffffffffff167fb792983f4be9cd6a6722f6cf3c136d8cf44f77c5cf7cb263f75f36b04806a01b82604051610a099190610c55565b60405180910390a250505050565b5f8054906101000a900473ffffffffffffffffffffffffffffffffffffffff1681565b5f82610a468584610adb565b1490509392505050565b5f33905090565b5f90565b60605f808473ffffffffffffffffffffffffffffffffffffffff1684604051610a849190611964565b5f60405180830381855af49150503d805f8114610abc576040519150601f19603f3d011682016040523d82523d5f602084013e610ac1565b606091505b5091509150610ad1858383610b2f565b9250505092915050565b5f808290505f5b8451811015610b2457610b0f82868381518110610b0257610b01611593565b5b6020026020010151610bbc565b91508080610b1c906116bf565b915050610ae2565b508091505092915050565b606082610b4457610b3f82610be6565b610bb4565b5f8251148015610b6a57505f8473ffffffffffffffffffffffffffffffffffffffff163b145b15610bac57836040517f9996b315000000000000000000000000000000000000000000000000000000008152600401610ba391906110e7565b60405180910390fd5b819050610bb5565b5b9392505050565b5f818310610bd357610bce8284610c29565b610bde565b610bdd8383610c29565b5b905092915050565b5f81511115610bf757805160208201fd5b6040517fd6bda27500000000000000000000000000000000000000000000000000000000815260040160405180910390fd5b5f825f528160205260405f20905092915050565b5f819050919050565b610c4f81610c3d565b82525050565b5f602082019050610c685f830184610c46565b92915050565b5f604051905090565b5f80fd5b5f80fd5b5f80fd5b5f601f19601f8301169050919050565b7f4e487b71000000000000000000000000000000000000000000000000000000005f52604160045260245ffd5b610cc982610c83565b810181811067ffffffffffffffff82111715610ce857610ce7610c93565b5b80604052505050565b5f610cfa610c6e565b9050610d068282610cc0565b919050565b5f67ffffffffffffffff821115610d2557610d24610c93565b5b602082029050602081019050919050565b5f80fd5b5f819050919050565b610d4c81610d3a565b8114610d56575f80fd5b50565b5f81359050610d6781610d43565b92915050565b5f610d7f610d7a84610d0b565b610cf1565b90508083825260208201905060208402830185811115610da257610da1610d36565b5b835b81811015610dcb5780610db78882610d59565b845260208401935050602081019050610da4565b5050509392505050565b5f82601f830112610de957610de8610c7f565b5b8135610df9848260208601610d6d565b91505092915050565b5f73ffffffffffffffffffffffffffffffffffffffff82169050919050565b5f610e2b82610e02565b9050919050565b610e3b81610e21565b8114610e45575f80fd5b50565b5f81359050610e5681610e32565b92915050565b5f8060408385031215610e7257610e71610c77565b5b5f83013567ffffffffffffffff811115610e8f57610e8e610c7b565b5b610e9b85828601610dd5565b9250506020610eac85828601610e48565b9150509250929050565b5f8115159050919050565b610eca81610eb6565b82525050565b5f602082019050610ee35f830184610ec1565b92915050565b610ef281610c3d565b8114610efc575f80fd5b50565b5f81359050610f0d81610ee9565b92915050565b5f60ff82169050919050565b610f2881610f13565b8114610f32575f80fd5b50565b5f81359050610f4381610f1f565b92915050565b5f805f805f805f60e0888a031215610f6457610f63610c77565b5b5f610f718a828b01610e48565b9750506020610f828a828b01610e48565b9650506040610f938a828b01610eff565b9550506060610fa48a828b01610eff565b9450506080610fb58a828b01610f35565b93505060a0610fc68a828b01610d59565b92505060c0610fd78a828b01610d59565b91505092959891949750929550565b610fef81610d3a565b82525050565b5f6020820190506110085f830184610fe6565b92915050565b5f819050919050565b5f61103161102c61102784610e02565b61100e565b610e02565b9050919050565b5f61104282611017565b9050919050565b5f61105382611038565b9050919050565b61106381611049565b82525050565b5f60208201905061107c5f83018461105a565b92915050565b5f6020828403121561109757611096610c77565b5b5f6110a484828501610d59565b91505092915050565b5f602082840312156110c2576110c1610c77565b5b5f6110cf84828501610eff565b91505092915050565b6110e181610e21565b82525050565b5f6020820190506110fa5f8301846110d8565b92915050565b5f80fd5b5f8083601f84011261111957611118610c7f565b5b8235905067ffffffffffffffff81111561113657611135611100565b5b60208301915083602082028301111561115257611151610d36565b5b9250929050565b5f806020838503121561116f5761116e610c77565b5b5f83013567ffffffffffffffff81111561118c5761118b610c7b565b5b61119885828601611104565b92509250509250929050565b5f81519050919050565b5f82825260208201905092915050565b5f819050602082019050919050565b5f81519050919050565b5f82825260208201905092915050565b5f5b838110156112045780820151818401526020810190506111e9565b5f8484015250505050565b5f611219826111cd565b61122381856111d7565b93506112338185602086016111e7565b61123c81610c83565b840191505092915050565b5f611252838361120f565b905092915050565b5f602082019050919050565b5f611270826111a4565b61127a81856111ae565b93508360208202850161128c856111be565b805f5b858110156112c757848403895281516112a88582611247565b94506112b38361125a565b925060208a0199505060018101905061128f565b50829750879550505050505092915050565b5f6020820190508181035f8301526112f18184611266565b905092915050565b5f6020828403121561130e5761130d610c77565b5b5f61131b84828501610e48565b91505092915050565b5f8083601f84011261133957611338610c7f565b5b8235905067ffffffffffffffff81111561135657611355611100565b5b60208301915083602082028301111561137257611371610d36565b5b9250929050565b5f806020838503121561138f5761138e610c77565b5b5f83013567ffffffffffffffff8111156113ac576113ab610c7b565b5b6113b885828601611324565b92509250509250929050565b5f6113ce82611038565b9050919050565b6113de816113c4565b82525050565b5f6020820190506113f75f8301846113d5565b92915050565b61140681610f13565b82525050565b5f60e08201905061141f5f83018a6110d8565b61142c60208301896110d8565b6114396040830188610c46565b6114466060830187610c46565b61145360808301866113fd565b61146060a0830185610fe6565b61146d60c0830184610fe6565b98975050505050505050565b5f82825260208201905092915050565b7f4f6e6c79206f776e6572000000000000000000000000000000000000000000005f82015250565b5f6114bd600a83611479565b91506114c882611489565b602082019050919050565b5f6020820190508181035f8301526114ea816114b1565b9050919050565b7f4e487b71000000000000000000000000000000000000000000000000000000005f52601160045260245ffd5b5f61152882610c3d565b915061153383610c3d565b925082820390508181111561154b5761154a6114f1565b5b92915050565b5f80fd5b5f80fd5b5f808585111561156c5761156b611551565b5b8386111561157d5761157c611555565b5b6001850283019150848603905094509492505050565b7f4e487b71000000000000000000000000000000000000000000000000000000005f52603260045260245ffd5b5f80fd5b5f80fd5b5f80fd5b5f80833560016020038436030381126115e8576115e76115c0565b5b80840192508235915067ffffffffffffffff82111561160a576116096115c4565b5b602083019250600182023603831315611626576116256115c8565b5b509250929050565b5f81905092915050565b828183375f83830152505050565b5f611651838561162e565b935061165e838584611638565b82840190509392505050565b5f611674826111cd565b61167e818561162e565b935061168e8185602086016111e7565b80840191505092915050565b5f6116a6828587611646565b91506116b2828461166a565b9150819050949350505050565b5f6116c982610c3d565b91507fffffffffffffffffffffffffffffffffffffffffffffffffffffffffffffffff82036116fb576116fa6114f1565b5b600182019050919050565b7f416c726561647920636c61696d656400000000000000000000000000000000005f82015250565b5f61173a600f83611479565b915061174582611706565b602082019050919050565b5f6020820190508181035f8301526117678161172e565b9050919050565b7f4e6f7420696e2077686974656c697374000000000000000000000000000000005f82015250565b5f6117a2601083611479565b91506117ad8261176e565b602082019050919050565b5f6020820190508181035f8301526117cf81611796565b9050919050565b7f4e487b71000000000000000000000000000000000000000000000000000000005f52601260045260245ffd5b5f61180d82610c3d565b915061181883610c3d565b925082611828576118276117d6565b5b828204905092915050565b5f6060820190506118465f8301866110d8565b61185360208301856110d8565b6118606040830184610c46565b949350505050565b61187181610eb6565b811461187b575f80fd5b50565b5f8151905061188c81611868565b92915050565b5f602082840312156118a7576118a6610c77565b5b5f6118b48482850161187e565b91505092915050565b7f546f6b656e207472616e73666572206661696c656400000000000000000000005f82015250565b5f6118f1601583611479565b91506118fc826118bd565b602082019050919050565b5f6020820190508181035f83015261191e816118e5565b9050919050565b5f8151905061193381610ee9565b92915050565b5f6020828403121561194e5761194d610c77565b5b5f61195b84828501611925565b91505092915050565b5f61196f828461166a565b91508190509291505056fea2646970667358221220e61bd3b284ec7df9acc5cd4efd0324dd118884855f3abd50b5459d291e52da9464736f6c63430008140033","linkReferences":{}},"methodIdentifiers":{"claimNFT(bytes32[])":"edf8cb60","claimed(address)":"c884ef83","merkleRoot()":"2eb4a7ab","multicall(bytes[])":"ac9650d8","nft()":"47ccca02","nftPrice()":"0d39fc81","owner()":"8da5cb5b","permitPrePay(address,address,uint256,uint256,uint8,bytes32,bytes32)":"25f69942","setMerkleRoot(bytes32)":"7cb64759","setNFTPrice(uint256)":"81530b68","token()":"fc0c546a","verifyWhitelist(bytes32[],address)":"18ff357e"},"id":50}