{"abi":[{"type":"constructor","inputs":[],"stateMutability":"nonpayable"},{"type":"function","name":"DOMAIN_SEPARATOR","inputs":[],"outputs":[{"name":"","type":"bytes32","internalType":"bytes32"}],"stateMutability":"view"},{"type":"function","name":"allowance","inputs":[{"name":"owner","type":"address","internalType":"address"},{"name":"spender","type":"address","internalType":"address"}],"outputs":[{"name":"","type":"uint256","internalType":"uint256"}],"stateMutability":"view"},{"type":"function","name":"approve","inputs":[{"name":"spender","type":"address","internalType":"address"},{"name":"value","type":"uint256","internalType":"uint256"}],"outputs":[{"name":"","type":"bool","internalType":"bool"}],"stateMutability":"nonpayable"},{"type":"function","name":"balanceOf","inputs":[{"name":"account","type":"address","internalType":"address"}],"outputs":[{"name":"","type":"uint256","internalType":"uint256"}],"stateMutability":"view"},{"type":"function","name":"decimals","inputs":[],"outputs":[{"name":"","type":"uint8","internalType":"uint8"}],"stateMutability":"view"},{"type":"function","name":"eip712Domain","inputs":[],"outputs":[{"name":"fields","type":"bytes1","internalType":"bytes1"},{"name":"name","type":"string","internalType":"string"},{"name":"version","type":"string","internalType":"string"},{"name":"chainId","type":"uint256","internalType":"uint256"},{"name":"verifyingContract","type":"address","internalType":"address"},{"name":"salt","type":"bytes32","internalType":"bytes32"},{"name":"extensions","type":"uint256[]","internalType":"uint256[]"}],"stateMutability":"view"},{"type":"function","name":"name","inputs":[],"outputs":[{"name":"","type":"string","internalType":"string"}],"stateMutability":"view"},{"type":"function","name":"nonces","inputs":[{"name":"owner","type":"address","internalType":"address"}],"outputs":[{"name":"","type":"uint256","internalType":"uint256"}],"stateMutability":"view"},{"type":"function","name":"permit","inputs":[{"name":"owner","type":"address","internalType":"address"},{"name":"spender","type":"address","internalType":"address"},{"name":"value","type":"uint256","internalType":"uint256"},{"name":"deadline","type":"uint256","internalType":"uint256"},{"name":"v","type":"uint8","internalType":"uint8"},{"name":"r","type":"bytes32","internalType":"bytes32"},{"name":"s","type":"bytes32","internalType":"bytes32"}],"outputs":[],"stateMutability":"nonpayable"},{"type":"function","name":"symbol","inputs":[],"outputs":[{"name":"","type":"string","internalType":"string"}],"stateMutability":"view"},{"type":"function","name":"totalSupply","inputs":[],"outputs":[{"name":"","type":"uint256","internalType":"uint256"}],"stateMutability":"view"},{"type":"function","name":"transfer","inputs":[{"name":"to","type":"address","internalType":"address"},{"name":"value","type":"uint256","internalType":"uint256"}],"outputs":[{"name":"","type":"bool","internalType":"bool"}],"stateMutability":"nonpayable"},{"type":"function","name":"transferFrom","inputs":[{"name":"from","type":"address","internalType":"address"},{"name":"to","type":"address","internalType":"address"},{"name":"value","type":"uint256","internalType":"uint256"}],"outputs":[{"name":"","type":"bool","internalType":"bool"}],"stateMutability":"nonpayable"},{"type":"event","name":"Approval","inputs":[{"name":"owner","type":"address","indexed":true,"internalType":"address"},{"name":"spender","type":"address","indexed":true,"internalType":"address"},{"name":"value","type":"uint256","indexed":false,"internalType":"uint256"}],"anonymous":false},{"type":"event","name":"EIP712DomainChanged","inputs":[],"anonymous":false},{"type":"event","name":"Transfer","inputs":[{"name":"from","type":"address","indexed":true,"internalType":"address"},{"name":"to","type":"address","indexed":true,"internalType":"address"},{"name":"value","type":"uint256","indexed":false,"internalType":"uint256"}],"anonymous":false},{"type":"error","name":"ECDSAInvalidSignature","inputs":[]},{"type":"error","name":"ECDSAInvalidSignatureLength","inputs":[{"name":"length","type":"uint256","internalType":"uint256"}]},{"type":"error","name":"ECDSAInvalidSignatureS","inputs":[{"name":"s","type":"bytes32","internalType":"bytes32"}]},{"type":"error","name":"ERC20InsufficientAllowance","inputs":[{"name":"spender","type":"address","internalType":"address"},{"name":"allowance","type":"uint256","internalType":"uint256"},{"name":"needed","type":"uint256","internalType":"uint256"}]},{"type":"error","name":"ERC20InsufficientBalance","inputs":[{"name":"sender","type":"address","internalType":"address"},{"name":"balance","type":"uint256","internalType":"uint256"},{"name":"needed","type":"uint256","internalType":"uint256"}]},{"type":"error","name":"ERC20InvalidApprover","inputs":[{"name":"approver","type":"address","internalType":"address"}]},{"type":"error","name":"ERC20InvalidReceiver","inputs":[{"name":"receiver","type":"address","internalType":"address"}]},{"type":"error","name":"ERC20InvalidSender","inputs":[{"name":"sender","type":"address","internalType":"address"}]},{"type":"error","name":"ERC20InvalidSpender","inputs":[{"name":"spender","type":"address","internalType":"address"}]},{"type":"error","name":"ERC2612ExpiredSignature","inputs":[{"name":"deadline","type":"uint256","internalType":"uint256"}]},{"type":"error","name":"ERC2612InvalidSigner","inputs":[{"name":"signer","type":"address","internalType":"address"},{"name":"owner","type":"address","internalType":"address"}]},{"type":"error","name":"InvalidAccountNonce","inputs":[{"name":"account","type":"address","internalType":"address"},{"name":"currentNonce","type":"uint256","internalType":"uint256"}]},{"type":"error","name":"InvalidShortString","inputs":[]},{"type":"error","name":"StringTooLong","inputs":[{"name":"str","type":"string","internalType":"string"}]}],"bytecode":{"object":"0x61016060405234801562000011575f80fd5b506040518060400160405280600d81526020017f446973636f756e74546f6b656e00000000000000000000000000000000000000815250806040518060400160405280600181526020017f31000000000000000000000000000000000000000000000000000000000000008152506040518060400160405280600d81526020017f446973636f756e74546f6b656e000000000000000000000000000000000000008152506040518060400160405280600381526020017f44544b00000000000000000000000000000000000000000000000000000000008152508160039081620000fc919062000845565b5080600490816200010e919062000845565b505050620001276005836200020760201b90919060201c565b6101208181525050620001456006826200020760201b90919060201c565b6101408181525050818051906020012060e08181525050808051906020012061010081815250504660a08181525050620001846200025c60201b60201c565b608081815250503073ffffffffffffffffffffffffffffffffffffffff1660c08173ffffffffffffffffffffffffffffffffffffffff16815250505050506200020133620001d7620002b860201b60201c565b600a620001e5919062000ab2565b620f4240620001f5919062000b02565b620002c060201b60201c565b62000e0a565b5f6020835110156200022c5762000224836200034a60201b60201c565b905062000256565b826200023e83620003b460201b60201c565b5f0190816200024e919062000845565b5060ff5f1b90505b92915050565b5f7f8b73c3c69bb8fe3d512ecc4cf759cc79239f7b179b0ffacaa9a75d522b39400f60e0516101005146306040516020016200029d95949392919062000bba565b60405160208183030381529060405280519060200120905090565b5f6012905090565b5f73ffffffffffffffffffffffffffffffffffffffff168273ffffffffffffffffffffffffffffffffffffffff160362000333575f6040517fec442f050000000000000000000000000000000000000000000000000000000081526004016200032a919062000c15565b60405180910390fd5b620003465f8383620003bd60201b60201c565b5050565b5f80829050601f815111156200039957826040517f305a27a900000000000000000000000000000000000000000000000000000000815260040162000390919062000cba565b60405180910390fd5b805181620003a79062000d0b565b5f1c175f1b915050919050565b5f819050919050565b5f73ffffffffffffffffffffffffffffffffffffffff168373ffffffffffffffffffffffffffffffffffffffff160362000411578060025f82825462000404919062000d7a565b92505081905550620004e2565b5f805f8573ffffffffffffffffffffffffffffffffffffffff1673ffffffffffffffffffffffffffffffffffffffff1681526020019081526020015f20549050818110156200049d578381836040517fe450d38c000000000000000000000000000000000000000000000000000000008152600401620004949392919062000db4565b60405180910390fd5b8181035f808673ffffffffffffffffffffffffffffffffffffffff1673ffffffffffffffffffffffffffffffffffffffff1681526020019081526020015f2081905550505b5f73ffffffffffffffffffffffffffffffffffffffff168273ffffffffffffffffffffffffffffffffffffffff16036200052b578060025f828254039250508190555062000575565b805f808473ffffffffffffffffffffffffffffffffffffffff1673ffffffffffffffffffffffffffffffffffffffff1681526020019081526020015f205f82825401925050819055505b8173ffffffffffffffffffffffffffffffffffffffff168373ffffffffffffffffffffffffffffffffffffffff167fddf252ad1be2c89b69c2b068fc378daa952ba7f163c4a11628f55a4df523b3ef83604051620005d4919062000def565b60405180910390a3505050565b5f81519050919050565b7f4e487b71000000000000000000000000000000000000000000000000000000005f52604160045260245ffd5b7f4e487b71000000000000000000000000000000000000000000000000000000005f52602260045260245ffd5b5f60028204905060018216806200065d57607f821691505b60208210810362000673576200067262000618565b5b50919050565b5f819050815f5260205f209050919050565b5f6020601f8301049050919050565b5f82821b905092915050565b5f60088302620006d77fffffffffffffffffffffffffffffffffffffffffffffffffffffffffffffffff826200069a565b620006e386836200069a565b95508019841693508086168417925050509392505050565b5f819050919050565b5f819050919050565b5f6200072d620007276200072184620006fb565b62000704565b620006fb565b9050919050565b5f819050919050565b62000748836200070d565b62000760620007578262000734565b848454620006a6565b825550505050565b5f90565b6200077662000768565b620007838184846200073d565b505050565b5b81811015620007aa576200079e5f826200076c565b60018101905062000789565b5050565b601f821115620007f957620007c38162000679565b620007ce846200068b565b81016020851015620007de578190505b620007f6620007ed856200068b565b83018262000788565b50505b505050565b5f82821c905092915050565b5f6200081b5f1984600802620007fe565b1980831691505092915050565b5f6200083583836200080a565b9150826002028217905092915050565b6200085082620005e1565b67ffffffffffffffff8111156200086c576200086b620005eb565b5b62000878825462000645565b62000885828285620007ae565b5f60209050601f831160018114620008bb575f8415620008a6578287015190505b620008b2858262000828565b86555062000921565b601f198416620008cb8662000679565b5f5b82811015620008f457848901518255600182019150602085019450602081019050620008cd565b8683101562000914578489015162000910601f8916826200080a565b8355505b6001600288020188555050505b505050505050565b7f4e487b71000000000000000000000000000000000000000000000000000000005f52601160045260245ffd5b5f8160011c9050919050565b5f808291508390505b6001851115620009b3578086048111156200098b576200098a62000929565b5b60018516156200099b5780820291505b8081029050620009ab8562000956565b94506200096b565b94509492505050565b5f82620009cd576001905062000a9f565b81620009dc575f905062000a9f565b8160018114620009f5576002811462000a005762000a36565b600191505062000a9f565b60ff84111562000a155762000a1462000929565b5b8360020a91508482111562000a2f5762000a2e62000929565b5b5062000a9f565b5060208310610133831016604e8410600b841016171562000a705782820a90508381111562000a6a5762000a6962000929565b5b62000a9f565b62000a7f848484600162000962565b9250905081840481111562000a995762000a9862000929565b5b81810290505b9392505050565b5f60ff82169050919050565b5f62000abe82620006fb565b915062000acb8362000aa6565b925062000afa7fffffffffffffffffffffffffffffffffffffffffffffffffffffffffffffffff8484620009bc565b905092915050565b5f62000b0e82620006fb565b915062000b1b83620006fb565b925082820262000b2b81620006fb565b9150828204841483151762000b455762000b4462000929565b5b5092915050565b5f819050919050565b62000b608162000b4c565b82525050565b62000b7181620006fb565b82525050565b5f73ffffffffffffffffffffffffffffffffffffffff82169050919050565b5f62000ba28262000b77565b9050919050565b62000bb48162000b96565b82525050565b5f60a08201905062000bcf5f83018862000b55565b62000bde602083018762000b55565b62000bed604083018662000b55565b62000bfc606083018562000b66565b62000c0b608083018462000ba9565b9695505050505050565b5f60208201905062000c2a5f83018462000ba9565b92915050565b5f82825260208201905092915050565b5f5b8381101562000c5f57808201518184015260208101905062000c42565b5f8484015250505050565b5f601f19601f8301169050919050565b5f62000c8682620005e1565b62000c92818562000c30565b935062000ca481856020860162000c40565b62000caf8162000c6a565b840191505092915050565b5f6020820190508181035f83015262000cd4818462000c7a565b905092915050565b5f81519050919050565b5f819050602082019050919050565b5f62000d02825162000b4c565b80915050919050565b5f62000d178262000cdc565b8262000d238462000ce6565b905062000d308162000cf5565b9250602082101562000d735762000d6e7fffffffffffffffffffffffffffffffffffffffffffffffffffffffffffffffff836020036008026200069a565b831692505b5050919050565b5f62000d8682620006fb565b915062000d9383620006fb565b925082820190508082111562000dae5762000dad62000929565b5b92915050565b5f60608201905062000dc95f83018662000ba9565b62000dd8602083018562000b66565b62000de7604083018462000b66565b949350505050565b5f60208201905062000e045f83018462000b66565b92915050565b60805160a05160c05160e051610100516101205161014051611b6f62000e5c5f395f610a1601525f6109db01525f610f0f01525f610eee01525f6108d901525f61092f01525f6109580152611b6f5ff3fe608060405234801561000f575f80fd5b50600436106100cd575f3560e01c806370a082311161008a57806395d89b411161006457806395d89b411461022d578063a9059cbb1461024b578063d505accf1461027b578063dd62ed3e14610297576100cd565b806370a08231146101a95780637ecebe00146101d957806384b0196e14610209576100cd565b806306fdde03146100d1578063095ea7b3146100ef57806318160ddd1461011f57806323b872dd1461013d578063313ce5671461016d5780633644e5151461018b575b5f80fd5b6100d96102c7565b6040516100e691906113df565b60405180910390f35b61010960048036038101906101049190611490565b610357565b60405161011691906114e8565b60405180910390f35b610127610379565b6040516101349190611510565b60405180910390f35b61015760048036038101906101529190611529565b610382565b60405161016491906114e8565b60405180910390f35b6101756103b0565b6040516101829190611594565b60405180910390f35b6101936103b8565b6040516101a091906115c5565b60405180910390f35b6101c360048036038101906101be91906115de565b6103c6565b6040516101d09190611510565b60405180910390f35b6101f360048036038101906101ee91906115de565b61040b565b6040516102009190611510565b60405180910390f35b61021161041c565b6040516102249796959493929190611709565b60405180910390f35b6102356104c1565b60405161024291906113df565b60405180910390f35b61026560048036038101906102609190611490565b610551565b60405161027291906114e8565b60405180910390f35b610295600480360381019061029091906117df565b610573565b005b6102b160048036038101906102ac919061187c565b6106b8565b6040516102be9190611510565b60405180910390f35b6060600380546102d6906118e7565b80601f0160208091040260200160405190810160405280929190818152602001828054610302906118e7565b801561034d5780601f106103245761010080835404028352916020019161034d565b820191905f5260205f20905b81548152906001019060200180831161033057829003601f168201915b5050505050905090565b5f8061036161073a565b905061036e818585610741565b600191505092915050565b5f600254905090565b5f8061038c61073a565b9050610399858285610753565b6103a48585856107e6565b60019150509392505050565b5f6012905090565b5f6103c16108d6565b905090565b5f805f8373ffffffffffffffffffffffffffffffffffffffff1673ffffffffffffffffffffffffffffffffffffffff1681526020019081526020015f20549050919050565b5f6104158261098c565b9050919050565b5f6060805f805f606061042d6109d2565b610435610a0d565b46305f801b5f67ffffffffffffffff81111561045457610453611917565b5b6040519080825280602002602001820160405280156104825781602001602082028036833780820191505090505b507f0f00000000000000000000000000000000000000000000000000000000000000959493929190965096509650965096509650965090919293949596565b6060600480546104d0906118e7565b80601f01602080910402602001604051908101604052809291908181526020018280546104fc906118e7565b80156105475780601f1061051e57610100808354040283529160200191610547565b820191905f5260205f20905b81548152906001019060200180831161052a57829003601f168201915b5050505050905090565b5f8061055b61073a565b90506105688185856107e6565b600191505092915050565b834211156105b857836040517f627913020000000000000000000000000000000000000000000000000000000081526004016105af9190611510565b60405180910390fd5b5f7f6e71edae12b1b97f4d1f60370fef10105fa2faae0126114a169c64845d6126c98888886105e68c610a48565b896040516020016105fc96959493929190611944565b6040516020818303038152906040528051906020012090505f61061e82610a9b565b90505f61062d82878787610ab4565b90508973ffffffffffffffffffffffffffffffffffffffff168173ffffffffffffffffffffffffffffffffffffffff16146106a157808a6040517f4b800e460000000000000000000000000000000000000000000000000000000081526004016106989291906119a3565b60405180910390fd5b6106ac8a8a8a610741565b50505050505050505050565b5f60015f8473ffffffffffffffffffffffffffffffffffffffff1673ffffffffffffffffffffffffffffffffffffffff1681526020019081526020015f205f8373ffffffffffffffffffffffffffffffffffffffff1673ffffffffffffffffffffffffffffffffffffffff1681526020019081526020015f2054905092915050565b5f33905090565b61074e8383836001610ae2565b505050565b5f61075e84846106b8565b90507fffffffffffffffffffffffffffffffffffffffffffffffffffffffffffffffff8110156107e057818110156107d1578281836040517ffb8f41b20000000000000000000000000000000000000000000000000000000081526004016107c8939291906119ca565b60405180910390fd5b6107df84848484035f610ae2565b5b50505050565b5f73ffffffffffffffffffffffffffffffffffffffff168373ffffffffffffffffffffffffffffffffffffffff1603610856575f6040517f96c6fd1e00000000000000000000000000000000000000000000000000000000815260040161084d91906119ff565b60405180910390fd5b5f73ffffffffffffffffffffffffffffffffffffffff168273ffffffffffffffffffffffffffffffffffffffff16036108c6575f6040517fec442f050000000000000000000000000000000000000000000000000000000081526004016108bd91906119ff565b60405180910390fd5b6108d1838383610cb1565b505050565b5f7f000000000000000000000000000000000000000000000000000000000000000073ffffffffffffffffffffffffffffffffffffffff163073ffffffffffffffffffffffffffffffffffffffff1614801561095157507f000000000000000000000000000000000000000000000000000000000000000046145b1561097e577f00000000000000000000000000000000000000000000000000000000000000009050610989565b610986610eca565b90505b90565b5f60075f8373ffffffffffffffffffffffffffffffffffffffff1673ffffffffffffffffffffffffffffffffffffffff1681526020019081526020015f20549050919050565b6060610a0860057f0000000000000000000000000000000000000000000000000000000000000000610f5f90919063ffffffff16565b905090565b6060610a4360067f0000000000000000000000000000000000000000000000000000000000000000610f5f90919063ffffffff16565b905090565b5f60075f8373ffffffffffffffffffffffffffffffffffffffff1673ffffffffffffffffffffffffffffffffffffffff1681526020019081526020015f205f815480929190600101919050559050919050565b5f610aad610aa76108d6565b8361100c565b9050919050565b5f805f80610ac48888888861104c565b925092509250610ad48282611133565b829350505050949350505050565b5f73ffffffffffffffffffffffffffffffffffffffff168473ffffffffffffffffffffffffffffffffffffffff1603610b52575f6040517fe602df05000000000000000000000000000000000000000000000000000000008152600401610b4991906119ff565b60405180910390fd5b5f73ffffffffffffffffffffffffffffffffffffffff168373ffffffffffffffffffffffffffffffffffffffff1603610bc2575f6040517f94280d62000000000000000000000000000000000000000000000000000000008152600401610bb991906119ff565b60405180910390fd5b8160015f8673ffffffffffffffffffffffffffffffffffffffff1673ffffffffffffffffffffffffffffffffffffffff1681526020019081526020015f205f8573ffffffffffffffffffffffffffffffffffffffff1673ffffffffffffffffffffffffffffffffffffffff1681526020019081526020015f20819055508015610cab578273ffffffffffffffffffffffffffffffffffffffff168473ffffffffffffffffffffffffffffffffffffffff167f8c5be1e5ebec7d5bd14f71427d1e84f3dd0314c0f7b2291e5b200ac8c7c3b92584604051610ca29190611510565b60405180910390a35b50505050565b5f73ffffffffffffffffffffffffffffffffffffffff168373ffffffffffffffffffffffffffffffffffffffff1603610d01578060025f828254610cf59190611a45565b92505081905550610dcf565b5f805f8573ffffffffffffffffffffffffffffffffffffffff1673ffffffffffffffffffffffffffffffffffffffff1681526020019081526020015f2054905081811015610d8a578381836040517fe450d38c000000000000000000000000000000000000000000000000000000008152600401610d81939291906119ca565b60405180910390fd5b8181035f808673ffffffffffffffffffffffffffffffffffffffff1673ffffffffffffffffffffffffffffffffffffffff1681526020019081526020015f2081905550505b5f73ffffffffffffffffffffffffffffffffffffffff168273ffffffffffffffffffffffffffffffffffffffff1603610e16578060025f8282540392505081905550610e60565b805f808473ffffffffffffffffffffffffffffffffffffffff1673ffffffffffffffffffffffffffffffffffffffff1681526020019081526020015f205f82825401925050819055505b8173ffffffffffffffffffffffffffffffffffffffff168373ffffffffffffffffffffffffffffffffffffffff167fddf252ad1be2c89b69c2b068fc378daa952ba7f163c4a11628f55a4df523b3ef83604051610ebd9190611510565b60405180910390a3505050565b5f7f8b73c3c69bb8fe3d512ecc4cf759cc79239f7b179b0ffacaa9a75d522b39400f7f00000000000000000000000000000000000000000000000000000000000000007f00000000000000000000000000000000000000000000000000000000000000004630604051602001610f44959493929190611a78565b60405160208183030381529060405280519060200120905090565b606060ff5f1b8314610f7b57610f7483611295565b9050611006565b818054610f87906118e7565b80601f0160208091040260200160405190810160405280929190818152602001828054610fb3906118e7565b8015610ffe5780601f10610fd557610100808354040283529160200191610ffe565b820191905f5260205f20905b815481529060010190602001808311610fe157829003601f168201915b505050505090505b92915050565b5f6040517f190100000000000000000000000000000000000000000000000000000000000081528360028201528260228201526042812091505092915050565b5f805f7f7fffffffffffffffffffffffffffffff5d576e7357a4501ddfe92f46681b20a0845f1c1115611088575f600385925092509250611129565b5f6001888888886040515f81526020016040526040516110ab9493929190611ac9565b6020604051602081039080840390855afa1580156110cb573d5f803e3d5ffd5b5050506020604051035190505f73ffffffffffffffffffffffffffffffffffffffff168173ffffffffffffffffffffffffffffffffffffffff160361111c575f60015f801b93509350935050611129565b805f805f1b935093509350505b9450945094915050565b5f600381111561114657611145611b0c565b5b82600381111561115957611158611b0c565b5b0315611291576001600381111561117357611172611b0c565b5b82600381111561118657611185611b0c565b5b036111bd576040517ff645eedf00000000000000000000000000000000000000000000000000000000815260040160405180910390fd5b600260038111156111d1576111d0611b0c565b5b8260038111156111e4576111e3611b0c565b5b0361122857805f1c6040517ffce698f700000000000000000000000000000000000000000000000000000000815260040161121f9190611510565b60405180910390fd5b60038081111561123b5761123a611b0c565b5b82600381111561124e5761124d611b0c565b5b0361129057806040517fd78bce0c00000000000000000000000000000000000000000000000000000000815260040161128791906115c5565b60405180910390fd5b5b5050565b60605f6112a183611307565b90505f602067ffffffffffffffff8111156112bf576112be611917565b5b6040519080825280601f01601f1916602001820160405280156112f15781602001600182028036833780820191505090505b5090508181528360208201528092505050919050565b5f8060ff835f1c169050601f81111561134c576040517fb3512b0c00000000000000000000000000000000000000000000000000000000815260040160405180910390fd5b80915050919050565b5f81519050919050565b5f82825260208201905092915050565b5f5b8381101561138c578082015181840152602081019050611371565b5f8484015250505050565b5f601f19601f8301169050919050565b5f6113b182611355565b6113bb818561135f565b93506113cb81856020860161136f565b6113d481611397565b840191505092915050565b5f6020820190508181035f8301526113f781846113a7565b905092915050565b5f80fd5b5f73ffffffffffffffffffffffffffffffffffffffff82169050919050565b5f61142c82611403565b9050919050565b61143c81611422565b8114611446575f80fd5b50565b5f8135905061145781611433565b92915050565b5f819050919050565b61146f8161145d565b8114611479575f80fd5b50565b5f8135905061148a81611466565b92915050565b5f80604083850312156114a6576114a56113ff565b5b5f6114b385828601611449565b92505060206114c48582860161147c565b9150509250929050565b5f8115159050919050565b6114e2816114ce565b82525050565b5f6020820190506114fb5f8301846114d9565b92915050565b61150a8161145d565b82525050565b5f6020820190506115235f830184611501565b92915050565b5f805f606084860312156115405761153f6113ff565b5b5f61154d86828701611449565b935050602061155e86828701611449565b925050604061156f8682870161147c565b9150509250925092565b5f60ff82169050919050565b61158e81611579565b82525050565b5f6020820190506115a75f830184611585565b92915050565b5f819050919050565b6115bf816115ad565b82525050565b5f6020820190506115d85f8301846115b6565b92915050565b5f602082840312156115f3576115f26113ff565b5b5f61160084828501611449565b91505092915050565b5f7fff0000000000000000000000000000000000000000000000000000000000000082169050919050565b61163d81611609565b82525050565b61164c81611422565b82525050565b5f81519050919050565b5f82825260208201905092915050565b5f819050602082019050919050565b6116848161145d565b82525050565b5f611695838361167b565b60208301905092915050565b5f602082019050919050565b5f6116b782611652565b6116c1818561165c565b93506116cc8361166c565b805f5b838110156116fc5781516116e3888261168a565b97506116ee836116a1565b9250506001810190506116cf565b5085935050505092915050565b5f60e08201905061171c5f83018a611634565b818103602083015261172e81896113a7565b9050818103604083015261174281886113a7565b90506117516060830187611501565b61175e6080830186611643565b61176b60a08301856115b6565b81810360c083015261177d81846116ad565b905098975050505050505050565b61179481611579565b811461179e575f80fd5b50565b5f813590506117af8161178b565b92915050565b6117be816115ad565b81146117c8575f80fd5b50565b5f813590506117d9816117b5565b92915050565b5f805f805f805f60e0888a0312156117fa576117f96113ff565b5b5f6118078a828b01611449565b97505060206118188a828b01611449565b96505060406118298a828b0161147c565b955050606061183a8a828b0161147c565b945050608061184b8a828b016117a1565b93505060a061185c8a828b016117cb565b92505060c061186d8a828b016117cb565b91505092959891949750929550565b5f8060408385031215611892576118916113ff565b5b5f61189f85828601611449565b92505060206118b085828601611449565b9150509250929050565b7f4e487b71000000000000000000000000000000000000000000000000000000005f52602260045260245ffd5b5f60028204905060018216806118fe57607f821691505b602082108103611911576119106118ba565b5b50919050565b7f4e487b71000000000000000000000000000000000000000000000000000000005f52604160045260245ffd5b5f60c0820190506119575f8301896115b6565b6119646020830188611643565b6119716040830187611643565b61197e6060830186611501565b61198b6080830185611501565b61199860a0830184611501565b979650505050505050565b5f6040820190506119b65f830185611643565b6119c36020830184611643565b9392505050565b5f6060820190506119dd5f830186611643565b6119ea6020830185611501565b6119f76040830184611501565b949350505050565b5f602082019050611a125f830184611643565b92915050565b7f4e487b71000000000000000000000000000000000000000000000000000000005f52601160045260245ffd5b5f611a4f8261145d565b9150611a5a8361145d565b9250828201905080821115611a7257611a71611a18565b5b92915050565b5f60a082019050611a8b5f8301886115b6565b611a9860208301876115b6565b611aa560408301866115b6565b611ab26060830185611501565b611abf6080830184611643565b9695505050505050565b5f608082019050611adc5f8301876115b6565b611ae96020830186611585565b611af660408301856115b6565b611b0360608301846115b6565b95945050505050565b7f4e487b71000000000000000000000000000000000000000000000000000000005f52602160045260245ffdfea2646970667358221220dea9afd7f56d466c9d2f2a1dbb39d6d2ebd8c58b6cdfdf7be3c65cb295d2ff6664736f6c63430008140033","linkReferences":{}},"methodIdentifiers":{"DOMAIN_SEPARATOR()":"3644e515","allowance(address,address)":"dd62ed3e","approve(address,uint256)":"095ea7b3","balanceOf(address)":"70a08231","decimals()":"313ce567","eip712Domain()":"84b0196e","name()":"06fdde03","nonces(address)":"7ecebe00","permit(address,address,uint256,uint256,uint8,bytes32,bytes32)":"d505accf","symbol()":"95d89b41","totalSupply()":"18160ddd","transfer(address,uint256)":"a9059cbb","transferFrom(address,address,uint256)":"23b872dd"},"id":50}